:020000040800F2
:10000000F019002001010008ED660008394F0008D2
:10001000915F0008092B000807800008000000001D
:10002000000000000000000000000000D171000886
:10003000BD2F000800000000FD690008C174000821
:100040001B0100081B0100081B0100081B01000820
:100050001B0100081B0100081B0100081B01000810
:100060001B0100081B0100081B0100081B01000800
:100070001B0100081B0100081B0100081B010008F0
:100080001B0100081B0100081B0100081B010008E0
:100090001B0100081B0100081B0100081B010008D0
:1000A0001B010008717500081B0100081B010008F6
:1000B0001B0100081B0100081B0100081B010008B0
:1000C0001B0100081B0100081B0100081B010008A0
:1000D0001B010008F57B00087D7C0008D57D000829
:1000E0000D3500081B0100081B010008DFF80CD0CB
:1000F00000F06CFC0048004725BD0008F019002006
:100100000648804706480047FEE7FEE7FEE7FEE7B1
:10011000FEE7FEE7FEE7FEE7FEE7FEE711750008F3
:10012000ED00000840EA01039B0703D009E008C97D
:10013000121F08C0042AFAD203E011F8013B00F8AC
:10014000013B521EF9D27047D2B201E000F8012BF8
:10015000491EFBD270470022F6E710B513460A4647
:1001600004461946FFF7F0FF204610BD10B50446BF
:1001700004E00B7800F8013B03B1491C521EF8D291
:10018000204610BDF0B480EA0102D40F4200B2EB69
:10019000410F02D20246084611464A0042D0C30D22
:1001A000DDB2C1F3C752AD1A202D35DAC1F3160105
:1001B00041F4000204B15242C5F1200602FA06F1F0
:1001C0002A411044B3EBD05F23D0C4B1012DA0EB82
:1001D000C35009DCF0BC4FF0004202EAC352DBB26C
:1001E00000F5000000F044BB400000F1807000EB1F
:1001F000C350A0F1807040EAD170490009E049087D
:1002000041EAC071A0EBC35000F50000400800EBCC
:10021000C350F0BC00F023BB6142012202EB41015C
:10022000001BF6E7F0BC704781F00041AAE780F0C0
:100230000040A7E780EA010210B502F00043400049
:1002400022D04A001FD0010E01EB1261C0F356000C
:10025000C2F3560240F4000042F40002A0FB022068
:1002600000047F39140400D0401C50EA124001D42D
:100270004000491EC2B20C0604EBD010401C4008DE
:10028000802A02D003E0002010BD20F001000029E8
:1002900000DA0020184310BD30B480EA010202F0F9
:1002A000004530F0004221F0004013D090B1C30D62
:1002B000D40DC2F31601C0F31600E41A41F4000194
:1002C00040F400027D34914201D3641C00E04900F7
:1002D000002C02DA30BC002070474FF400000023ED
:1002E000914201D3891A034340084FEA4101F7D1F3
:1002F00051B1914202D14FF0004105E002D24FF0DE
:10030000010101E06FF0010103EBC450284430BC4F
:1003100000F0A5BA2DE9FE4F804681EA0300C00F28
:100320000C46009021F0004123F00045B8EB02009C
:10033000A94105D24046214690461C460B4602463E
:1003400023F00040104347D0270DC7F30A00C3F342
:100350000A510290401A019040286BDAC3F313004F
:1003600040F4801B0098924620B10023D2EB030A90
:1003700063EB0B0B01985946C0F14002504600F068
:100380003DFA06460D4650465946019A00F055FA88
:1003900010EB08006141002487EA115284EAE773F8
:1003A0001A4340D0009A62B3019A012A4FEA0752D9
:1003B00015DC001B61EB02014FF0004202EA07521C
:1003C000CDE90042001C41F5801132462B4600F079
:1003D00098FA03B0BDE8F08F40462146F9E7001BCC
:1003E00061EB0201001C41F5801300185B412018ED
:1003F000A2F5001747EB030140EAD570B6196D412D
:1004000011E06D084FEA360645EAC0754FEA07521B
:10041000001B61EB0201001C41F5801149084FEA05
:1004200030000019514132462B4603B0BDE8F04F71
:1004300000F058BA0098012240000023D0EB0202DD
:1004400063EBE073009821464FEAE074B8EB0000DC
:1004500061EB0401E9E783F000435BE781F00041D1
:1004600058E72DE9FE4F81EA030404F0004421F02F
:10047000004100944FF0000B23F0004350EA0104C8
:100480005ED052EA03045BD0C3F30A54C1F30A55A9
:100490002C44A4F2F3340194A0FB0254C1F31301E1
:1004A00041F48011C3F3130343F4801301FB0244AE
:1004B00000FB034E840A970A44EA815447EA8357B3
:1004C000A4FB076802958D0A05FB07854FEA932C6C
:1004D00004FB0C542705029D4FEA065847EA1637DD
:1004E000B5EB08056EEB070C870E920E47EA8117F5
:1004F00042EA8312A7FB0201B6EB0B0164EB000496
:100500002B0D43EA0C335E1844EB1C50DA4651467F
:10051000E7FB0201C5F313044FEA0B3343EA14531C
:100520004FEA0432019C43EA0603A4F10C0402944E
:10053000009CCDE900B400F0E4F903B0BDE8F08F11
:1005400000200146F9E72DE9F04D81EA030404F0AB
:10055000004B21F0004514464FF0000A23F0004103
:1005600050EA050220D054EA01021DD0C5F30A5713
:100570000246C5F31303C1F31300C1F30A5640F456
:10058000801543F48013A7EB0608101BD64608F22B
:10059000FD3873EB050002D308F1010801E0921861
:1005A0005B41B8F1000F03DA00200146BDE8F08D91
:1005B00000204FF48011064684460EE0171B73EBB3
:1005C000050705D3121B63EB050306434CEA010C38
:1005D00049084FEA300092185B4150EA0107EDD11B
:1005E00052EA030012D082EA040083EA05010843BC
:1005F00005D0101BAB4106D20122002306E00022E9
:100600004FF0004302E06FF0010253101AEB0600B6
:100610004CEB085110EB0A0041EB0B01BDE8F04D2B
:1006200000F060B9C10F80EAE0700844CA07962361
:10063000002100F01DB996230022114600F018B9E0
:100640000EB5C10F80EAE0700844CA07002140F2ED
:1006500033438DE80E000A460B4600F052F903B012
:1006600000BD0EB540F2334102910021CDE90011E9
:100670000A460B4600F045F903B000BD00F0004209
:1006800020F00040C10DC0F3160040F400007F29A7
:1006900001DA00207047962903DCC1F19601C840B9
:1006A00001E096398840002AF4D04042704720F09B
:1006B0000040C10DC0F3160040F400007F2901DAAC
:1006C00000207047962903DCC1F19601C8407047AD
:1006D00096398840704770B5C1F30A5201F0004561
:1006E0000024C1F3130140F2FF3341F480119A4218
:1006F00001DA002070BD40F233439A42A2F2334245
:1007000003DC524200F089F800E090402C43F1D025
:10071000404270BD00F0004230F000400AD0C10DF0
:1007200001F56071C0F3160042EA0151C2084007AA
:1007300011437047002001467047000030B5041E89
:1007400071F1000404DB4FF00044404264EB01010E
:10075000141E73F1000405DB1C464FF000435242A7
:1007600063EB04038B4208BF824230BD30B5041EE8
:1007700071F1000404DB4FF00044404264EB0101DE
:10078000141E73F1000405DB1C464FF00043524277
:1007900063EB0403994208BF904230BD01F000436F
:1007A00030B421F0004150EA010206D00A0DA2F552
:1007B0006072C1F31301002A02DC30BC00207047D4
:1007C000440F44EAC104C100E01830BC00EBC25041
:1007D00000F045B8002801DBC0F10040002901DB32
:1007E000C1F1004181427047002801DBC0F10040A7
:1007F000002901DBC1F1004188427047202A04DB57
:10080000203A00FA02F1002070479140C2F1200323
:1008100020FA03F3194390407047202A04DB203A62
:1008200021FA02F00021704721FA02F3D040C2F110
:1008300020029140084319467047202A06DBCB1757
:10084000203A41FA02F043EAE07306E041FA02F38B
:10085000D040C2F120029140084319467047002958
:10086000A8BF7047401C490008BF20F00100704736
:1008700010B4B0FA80FC00FA0CF050EA010404BF96
:1008800010BC704749B1CCF1200421FA04F411FAEC
:100890000CF118BF012121430843A3EB0C01CB1D30
:1008A0004FEA00614FEA102042BF002010BC7047A1
:1008B00000EBC35010440029A4BF10BC7047401C7B
:1008C000490008BF20F0010010BC7047420005D06D
:1008D000C0F3C7525242914201DC0020704700EB46
:1008E000C150704710B5141E73F1000408DA401CA3
:1008F00041F1000192185B411A4301D120F001003F
:1009000010BD2DE9F04D92469B4611B1B1FA81F22E
:1009100002E0B0FA80F220329046FFF76FFF044603
:100920000F4640EA0A0041EA0B0153465A46084383
:1009300013D0114653EA010019D0C8F140025046C5
:10094000FFF76BFF05460E46504659464246FFF7F5
:1009500055FF084305D0012004E020463946BDE894
:10096000F08D0020054346EAE0762C4337430A9891
:100970006305E40AA0EB08000022FD0A44EA47549C
:100980000A3002D500200146E9E701051019694146
:10099000DDE9084500196941BDE8F04DA2E770B5F1
:1009A00021F0004303430CD0C1F30A550024D5EBDA
:1009B000040564EB0403D617AD1AB34102DB002033
:1009C000014670BD201841EB025170BD064C074D29
:1009D00006E0E06840F0010394E80700984710340F
:1009E000AC42F6D3FFF786FB78CC000898CC000821
:1009F0002DE9F04D00231A461B1A8A4103DB002023
:100A00000146BDE8F08DC1F30A52C1F3130141F470
:100A100080154FF0000BD10702D100186D41521E16
:100A20000027044640F2FF11384601EB620A3E46B9
:100A30008046024600204FF48011FFF7EEFEC219F7
:100A40007141BB1846EB0100B4EB030C75EB000CD5
:100A500004D3E41A65EB000517460E46241908F185
:100A600001006D4180463428E3DDF91946EB0600AC
:100A7000091BA84103D24FF0FF32134601E00022C8
:100A800013461BEB070046EB0A51BDE8F04DFFF79C
:100A900029BF70B58C1810F8015B15F0070301D160
:100AA00010F8013B2A1106D110F8012B03E010F8D1
:100AB000016B01F8016B5B1EF9D12B0705D40023F4
:100AC000521E0DD401F8013BFAE710F8013BCB1A96
:100AD000921C03E013F8015B01F8015B521EF9D58B
:100AE000A142D8D3002070BD08B50121084606F008
:100AF000A3F901214FF4027006F0BEF90120ADF810
:100B0000000000208DF803006946024803F0CCF98C
:100B100008BD0000000C014010B5FFF7E5FF00F034
:100B200001F810BD00B591B0334802F083F93348A5
:100B3000069033480790002008900220099000207A
:100B40000A9080200B9040000C9080000D90202097
:100B50000E9000020F900020109006A9264802F087
:100B60000FFA0121244802F059F9002001900120D8
:100B70008DF808008DF809004FF4602003900020E4
:100B8000049001208DF8140001A91C484C3800F095
:100B900063F84FF4004006F043F9052301220821D1
:100BA00016484C3800F080F8012114484C3800F009
:100BB00034F8012111484C3800F024F80F484C3823
:100BC00000F0CEF800BF0D484C3800F03BF800288C
:100BD000F9D10A484C3800F0D3F800BF07484C3828
:100BE00000F026F80028F9D1012104484C3800F023
:100BF000BCF811B000BD0000080002404C240140C8
:100C00007C00002021B1826842F00102826003E092
:100C1000826822F001028260704721B1826842F44A
:100C20008072826003E0826822F480728260704782
:100C3000014600208A6802F004020AB1012000E0A7
:100C400000207047014600208A6802F008020AB1BD
:100C5000012000E00020704730B50246002000234C
:100C600050680F4C20400D790C6844EA052420435D
:100C7000506090680B4C2040D1E902542C434D79D0
:100C800044EA450420439060D06A20F470000C7C54
:100C9000641EE4B2234340EA0350D06230BD00003A
:100CA000FFFEF0FFFDF7F1FFF0B504460D46002012
:100CB0000021092D11DDE068A5F10A0606EB4607C3
:100CC000072606FA07F18843A5F10A0606EB460651
:100CD00003FA06F10843E0600CE0206905EB4507E4
:100CE000072606FA07F1884305EB450603FA06F1E5
:100CF00008432061072A0FDA606B561E06EB860751
:100D00001F2606FA07F18843561E06EB860605FAEB
:100D100006F10843606322E00D2A0FDA206BD61F2C
:100D200006EB86071F2606FA07F18843D61F06EB57
:100D3000860605FA06F10843206310E0E06AA2F196
:100D40000D0606EB86071F2606FA07F18843A2F177
:100D50000D0606EB860605FA06F10843E062F0BDD3
:100D6000816841F008018160704721B1826842F4D6
:100D7000A002826003E0826822F4A00282607047D1
:100D8000816841F0040181607047000010B504F0F3
:100D900061FE0BF0A9F804F067FF05F053FCFFF7C4
:100DA000BBFE4FF4964001F007FB4FF4E13006F034
:100DB000BDFE174806F0A8FF05F07CFD0BF088FC8F
:100DC000012818DB15E04FF07E512046FFF7DAF9D5
:100DD00004464FF400700F4908600F492046FFF7A2
:100DE00003FD06D800200D49087001200C49087049
:100DF00000E0E8E705E00120084908700020084904
:100E0000087006F0C3FB06F031FC0BF047FE10BD86
:100E100020A10700100C01400050C34754000020DF
:100E2000AE00002000B58FB0FE48007838B1002039
:100E3000FC4908700721FC4800F042FD57E3FB48DD
:100E4000807900287DD0FA480078401CF849087065
:100E500008460078012806D002287ED0032872D0E8
:100E6000042871D163E1F3488069F3490490FFF7E6
:100E7000E1F90590FFF702FC00B20E90ED484069E1
:100E8000ED490490FFF7D6F90590FFF7F7FB00B2A4
:100E90000D90E8480069E8490490FFF7CBF9059008
:100EA000FFF7ECFB00B20C90E4488069E249049043
:100EB000FFF7C0F90590FFF7E1FB00B20B90DF48A8
:100EC0004069DD490490FFF7B5F90590FFF7D6FBBF
:100ED00000B20A90D9480069D7490490FFF7AAF9EF
:100EE0000590FFF7CBFB00B20990D5488069D24945
:100EF0000490FFF79FF90590FFF7C0FB00B2089040
:100F0000CF484069CC490490FFF794F90590FFF76A
:100F1000B5FB00B20790CA480069C7490490FFF7C3
:100F200089F90590FFF7AAFB00B20690DDE90B23D3
:100F3000DDE90D10CDE90223CDE90410DDE9090159
:100F400003E091E109E07DE06BE1CDE900010120E2
:100F500006A90EC900F0BCFC63E1BA488069B64935
:100F60000490FFF767F90590FFF788FB00B20E9039
:100F7000B4484069B0490490FFF75CF90590FFF769
:100F80007DFB00B20D90AF480069AB490490FFF7BC
:100F900051F90590FFF772FB00B20C90AA488069E6
:100FA000A5490490FFF746F90590FFF767FB00B2EB
:100FB0000B90A5484069A0490490FFF73BF90590C4
:100FC000FFF75CFB00B20A909F4800699A490490C1
:100FD000FFF730F90590FFF751FB00B209909B48ED
:100FE000806995490490FFF725F90590FFF746FBC6
:100FF00000B20890954840698F490490FFF71AF9AC
:101000000590FFF73BFB00B20790904800698A49C2
:101010000490FFF70FF90590FFF730FB00B2069040
:10102000DDE90B23DDE90D10CDE90223CDE9041044
:10103000DDE90901CDE90001022006A90EC900F091
:1010400047FCEEE0824880697B490490FFF7F2F8A4
:101050000590FFF713FB00B20E907D48406976497A
:101060000490FFF7E7F80590FFF708FB00B20D903A
:101070007748006970490490FFF7DCF80590FFF7A6
:10108000FDFA00B20C90734880696B490490FFF739
:10109000D1F80590FFF7F2FA00B20B906D48406965
:1010A00065490490FFF7C6F80590FFF7E7FA00B22C
:1010B0000A906848006960490490FFF7BBF8059002
:1010C000FFF7DCFA00B20990634880695A4904903E
:1010D000FFF7B0F80590FFF7D1FA00B208905E482C
:1010E000406955490490FFF7A5F80590FFF7C6FA47
:1010F00000B20790584800694F490490FFF79AF8EA
:101100000590FFF7BBFA00B20690DDE90B23DDE99D
:101110000D10CDE90223CDE90410DDE90901CDE987
:101120000001032006A90EC900F0D2FB79E04B486C
:10113000806941490490FFF77DF80590FFF79EFA1A
:1011400000B20E90454840693B490490FFF772F8A1
:101150000590FFF793FA00B20D90404800693649B8
:101160000490FFF767F80590FFF788FA00B20C903B
:101170003B48806930490490FFF75CF80590FFF721
:101180007DFA00B20B90364840692B490490FFF776
:1011900051F80590FFF772FA00B20A9030480069E2
:1011A00025490490FFF746F80590FFF767FA00B26B
:1011B00009902C48806920490490FFF73BF805907E
:1011C000FFF75CFA00B20890264840691A4904907B
:1011D000FFF730F80590FFF751FA00B20790214869
:1011E000006915490490FFF725F80590FFF746FAC6
:1011F00000B20690DDE90B23DDE90D10CDE90223F5
:10120000CDE90410DDE90901CDE90001042006A9BA
:101210000EC900F05DFB0020054908700349887184
:1012200000BF64E1E2020020A21500209415002016
:10123000E00200203805002000007A44B8040020B5
:1012400038040020B8060020B80500203806002029
:1012500038090020B807002038070020B80800200F
:10126000B809002038080020A248807818B1002072
:10127000A04988703BE1A0480078401C9E49087056
:10128000084600780D2827D2DFE800F02607275A05
:101290007D96A5BF26D2E5FCFB009848406A0B90DE
:1012A000FFF7ECF90E909648806880F000400D90B2
:1012B0009348006880F000400C9092480078914973
:1012C0004968C9B2CDE900108D4840680B900146CD
:1012D0000CA80DC800F008FE08E18848C0690C9011
:1012E000FFF7CCF900B20E90844880690C90FFF7AC
:1012F000C5F900B20D90814890F82020824BB3F9D7
:101300000A30DDE90D10CDE90131CDE903027E4857
:10131000B0F9080000907C48B0F906000C907A48BB
:10132000B0F904000B907848B0F902000A907648B2
:10133000B0F9000009900AA90EC900F0B7FCD5E089
:101340007248408A72490B787049C9896F4A9289FC
:10135000CDE90313029205906C4840896B490989D5
:10136000CDE90010694840880E90684800880D90CB
:101370006648C0880C90654880880B900CA90EC9FF
:1013800000F0E2FBB2E06348B0F900000A2190FBF4
:10139000F1F080B20E906048008860490988CDE97C
:1013A00000105A48008A0D90594803780122DDE95F
:1013B0000D1000F04FFB99E0594840680D90FFF781
:1013C0005DF90E905748008880B201460D900E9846
:1013D00000F03AFD8AE05448C06C0B90FFF767F9C3
:1013E00080B20E905048C06C0B90FFF760F980B24D
:1013F0000D904D48806C0B90FFF759F980B20C901E
:10140000DDE90D1200F014FE70E001200090474865
:10141000406A0E90454800680D904548406A0C901F
:10142000434800680B900CA90EC900F05BFE5DE01C
:10143000022000903F48406A0E903E4800680D90A0
:101440003D48406A0C903C4800680B900CA90EC9BE
:1014500000F048FE4AE03948C0690A90FFF7E2F818
:101460000E903648C0680A90FFF7DCF80D903348BC
:1014700040690A90FFF7D6F80C90304840680A900F
:1014800001E01DE009E0FFF7CDF80B90032000908C
:101490000BA80FC800F026FE28E004200090274883
:1014A000406A0E902548006A0D90154880680C909F
:1014B0002248C06A0B900CA90EC900F013FE15E07B
:1014C000052000901E4840680E901E4800680D9050
:1014D0001D48406A0C901C4800680B900CA90EC96E
:1014E00000F000FE00200449087000BF00BF0FB0EC
:1014F00000BD000094150020E0020020780E0020BE
:10150000E803002018040020D0030020000400207D
:10151000AF000020800000202E0200202C020020BE
:101520002804002098020020A80E0020380900207E
:1015300038080020B8090020B8080020500F00200B
:1015400098130020B8070020B80600202DE9F041CC
:1015500004460D460026002700BF04E0E05D30444D
:10156000C6B2781CC7B2681EB842F7DC601910F822
:10157000010CB04201D0BDE8F0812078AA2802D148
:101580006078AF2800D0F6E7A078012800D1CAE043
:10159000A07802281BD1207901280CD1634800785B
:1015A00020F0400040306149087001206049887196
:1015B0000020604908702079A02802D101205C49F0
:1015C00088702079A128E2D10AF08EFCABE0A078E7
:1015D00003283FD10120584948702079617941EAB8
:1015E000002056498880A079E17941EA00205349DA
:1015F000C880207A617A41EA002050490880A07AA8
:10160000E17A41EA00204D494880207B617B41EA34
:1016100000204A490881A07BE17B41EA002047493C
:101620004881207C617C41EA002044498881A07C7B
:10163000E17C41EA00204149C881207D617D41EA89
:1016400000203E490882A07DE17D41EA00203B491F
:10165000488268E0A078102810D11222211D384855
:10166000FEF760FD3148007820F00100401C2F4952
:101670000870A078314600F0E1F854E0A078112815
:1016800010D11222211D2F48FEF74CFD274800786B
:1016900020F00200801C25490870A078314600F037
:1016A000CDF840E0A078122810D11222211D264842
:1016B000FEF738FD1D48007820F00400001D1B498E
:1016C0000870A078314600F0B9F82CE0A078132813
:1016D00010D11222211D1D48FEF724FD1348007869
:1016E00020F00800083011490870A078314600F059
:1016F000A5F818E0A078142804D1A078314600F0AD
:101700009DF810E0A078152804D1A078314600F0AB
:1017100095F808E0A078F12805D12079617941EAAF
:1017200000200B49088000BF25E700001A020020B6
:1017300094150020E0020020140200200004002084
:10174000EC130020FE1300201014002022140020AF
:101750002E02002010B504463448007838B9AA2C6F
:1017600005D1012031490870314804705DE02F48EF
:101770000078012807D1AF2C05D102202B49087031
:101780002B48447051E029480078022807D1F12CF9
:1017900005DA0320254908702548847045E0234870
:1017A000007803280CD1322C0ADA04201F49087073
:1017B0001F48C4701F48047000201F49087034E09F
:1017C0001A480078042819D11A480078002815DD35
:1017D00018480078401E17490870174800781649C5
:1017E0000978491C144A1170001D11490C54114804
:1017F0000078D0B905200D49087016E00B48007834
:1018000005280FD10020094908700B480078001DF9
:1018100007490C5408480078401DC1B20448FFF73E
:1018200095FE02E000200149087010BD270200204B
:101830003415002025020020260200202DE9F04169
:1018400005460F4600260024AA201A4908701A49A6
:1018500008701849487018494870EF201549887079
:101860001549887002201349C8701349C87068B2BE
:10187000104908711049087178B20E4948710E4933
:10188000487100BF05E00B48005D3044C6B2601CE3
:10189000C4B2062CF7DB70B206498871064988711C
:1018A0000120064908700721024806F0CFFABDE87A
:1018B000F08100001B020020A2150020E20200209F
:1018C00070B504460D462946204600F061FD70BD06
:1018D0002DE9F84F06460F4690469946DDF828B0A8
:1018E0000024A246AA222146641C5948425421469B
:1018F000641C425406F10F00C2B22146641C5448D5
:10190000425400222146641C425400979DF8012055
:101910002146641C42549DF800202146641C425418
:10192000CDF800809DF801202146641C42549DF8AA
:1019300000202046611CCCB245490A54CDF80090E5
:101940009DF801202046611CCCB241490A549DF803
:1019500000202046611CCCB23D490A54CDF800B0AD
:101960009DF801202046611CCCB239490A549DF8EB
:1019700000202046611CCCB235490A540B980090D7
:101980009DF801202046611CCCB231490A549DF8D3
:1019900000202046611CCCB22D490A540C980090BE
:1019A0009DF801202046611CCCB229490A549DF8BB
:1019B00000202046611CCCB225490A540D980090A5
:1019C0009DF801202046611CCCB221490A549DF8A3
:1019D00000202046611CCCB21D490A540E9800908C
:1019E0009DF801202046611CCCB219490A549DF88B
:1019F00000202046611CCCB215490A540F98009073
:101A00009DF801202146601CC4B2114842549DF843
:101A100000202046611CCCB20D490A54201FC8701A
:101A2000002506E00A48405D504400F0FF0A681CAB
:101A3000C5B2A542F6DB2046611CCCB2044901F8D0
:101A400000A021460248FFF73BFFBDE8F88F0000E9
:101A5000A21500202DE9F84F06460F4690469946FC
:101A6000DDF828B00024A246AA222146641C35488D
:101A700042542146641C425405222146641C4254AF
:101A800000222146641C425400969DF80120214604
:101A9000641C42549DF800202146641C4254009767
:101AA0009DF801202146641C42549DF800202046E8
:101AB000611CCCB223490A542046611CCCB2214996
:101AC00001F800802046611CCCB21E4901F800904C
:101AD000CDF800B09DF801202046611CCCB2194918
:101AE0000A549DF800202046611CCCB215490A54C6
:101AF0000B9800909DF801202046611CCCB2114942
:101B00000A549DF800202046611CCCB20D490A54AD
:101B1000201FC870002506E00A48405D504400F0D0
:101B2000FF0A681CC5B2A542F6DB2046611CCCB298
:101B3000044901F800A021460248FFF7C1FEBDE8B4
:101B4000F88F0000A21500207FB500240026AA22ED
:101B50002146641C544842542146641C42540322CA
:101B60002146641C425400222146641C42549DF8C4
:101B700001202146641C42549DF800202146641C2B
:101B800042549DF805202146641C42549DF80420CF
:101B90002046611CCCB244490A549DF809202146D4
:101BA000601CC4B2404842549DF808202046611C85
:101BB000CCB23D490A549DF80D202046611CCCB2A0
:101BC00039490A549DF80C202046611CCCB2364994
:101BD0000A549DF821202046611CCCB232490A5497
:101BE0009DF820202046611CCCB22F490A549DF854
:101BF00025202146601CC4B22B4842549DF8242065
:101C00002046611CCCB228490A549DF82920204660
:101C1000611CCCB224490A549DF828202146601C3E
:101C2000C4B2214842549DF82D202046611CCCB2FC
:101C30001D490A549DF82C202046611CCCB21A493B
:101C40000A549DF831202046611CCCB216490A5432
:101C50009DF830202046611CCCB213490A549DF8EF
:101C600035202046611CCCB20F490A549DF834201F
:101C70002046611CCCB20C490A54201FC8700025B4
:101C800005E00948405D3044C6B2681CC5B2A542B3
:101C9000F7DB2046611CCCB203490E5421460248B2
:101CA000FFF70EFE7FBD0000A21500202DE9F84FC2
:101CB00006460F4690469946DDF828B00024A24615
:101CC000AA222146641C5F4842542146641C4254A7
:101CD00002222146641C425400222146641C4254C4
:101CE00000969DF801202146641C42549DF8002076
:101CF0002146641C425400979DF801202146641C33
:101D000042549DF800202046611CCCB24D490A5433
:101D1000CDF800809DF801202046611CCCB24949D5
:101D20000A549DF800202046611CCCB245490A5453
:101D3000CDF800909DF801202046611CCCB24149AD
:101D40000A549DF800202046611CCCB23D490A543B
:101D5000CDF800B09DF801202046611CCCB2394975
:101D60000A549DF800202046611CCCB235490A5423
:101D70000B9800909DF801202046611CCCB231499F
:101D80000A549DF800202046611CCCB22D490A540B
:101D90000C9800909DF801202046611CCCB2294986
:101DA0000A549DF800202046611CCCB225490A54F3
:101DB0000D9800909DF801202046611CCCB221496D
:101DC0000A549DF800202046611CCCB21D490A54DB
:101DD0000E9800909DF801202046611CCCB2194954
:101DE0000A549DF800202046611CCCB215490A54C3
:101DF000002000909DF801202046611CCCB21149C2
:101E00000A549DF800202046611CCCB20D490A54AA
:101E1000201FC870002506E00A48405D504400F0CD
:101E2000FF0A681CC5B2A542F6DB2046611CCCB295
:101E3000044901F800A021460248FFF741FDBDE832
:101E4000F88F0000A215002073B500240026AA22F6
:101E50002146641C234842542146641C42540722F4
:101E60002146641C425400222146641C42549DF8C1
:101E700003202146641C42549DF802202146641C24
:101E800042549DF801202146641C42549DF80020D4
:101E90002046611CCCB213490A549DF80520204607
:101EA000611CCCB20F490A549DF804202046611CE5
:101EB000CCB20C490A54201FC870002505E009481F
:101EC000405D3044C6B2681CC5B2A542F7DB20466F
:101ED000611CCCB203490E5421460248FFF7F0FCC6
:101EE0007CBD0000A21500202DE9FE4F82460E4663
:101EF00017469846DDF830B00024CDF80480A1469E
:101F0000AA222146641C484842542146641C42547B
:101F100001222146641C425400222146641C425482
:101F200042495046FEF786F90090FEF7A7FB00B243
:101F300002909DF809202146641C3B4842549DF8BC
:101F400008202146641C425438493046FEF772F995
:101F50000090FEF793FB00B202909DF80920214605
:101F6000641C314842549DF808202146601CC4B2CC
:101F70002D4842542D493846FEF75CF90090FEF793
:101F80007DFB00B202909DF809202046611CCCB276
:101F900025490A549DF808202046611CCCB22249EC
:101FA0000A549DF807202046611CCCB21E490A54F1
:101FB0009DF806202046611CCCB21B490A549DF8AE
:101FC00005202046611CCCB217490A549DF8042014
:101FD0002146601CC4B2144842542046611CCCB255
:101FE000114901F800B02146621CD4B20E4A0D9886
:101FF0005054201F1146C870002506E00A48405D75
:10200000484400F0FF09681CC5B2A542F6DB204633
:10201000611CCCB2044901F8009021460248FFF748
:102020004FFCBDE8FE8F0000A21500200000C84252
:102030002DE9F84306460F4690460024A146AA2201
:102040002146641C264842542146641C42540B22FB
:102050002146641C425400222146641C42540096CE
:102060009DF801202146641C42549DF80020214621
:10207000641C425400979DF801202146641C425480
:102080009DF800202046611CCCB215490A54CDF8B9
:1020900000809DF801202046611CCCB210490A54F2
:1020A0009DF800202046611CCCB20D490A54201F27
:1020B000C870002506E00A48405D484400F0FF096A
:1020C000681CC5B2A542F6DB2046611CCCB20449AF
:1020D00001F8009021460248FFF7F2FBBDE8F883C3
:1020E000A21500202DE9F84F06460F469046994666
:1020F000DDF828B00024A246AA222146641C4C48E0
:1021000042542146641C42540BF1F000C2B22146F5
:10211000641C4748425400222146641C42540096E5
:102120009DF803202146641C42549DF8022021465C
:10213000641C42549DF801202146641C42549DF8C1
:1021400000202046611CCCB239490A5400979DF802
:1021500003202046611CCCB235490A549DF8022068
:102160002046611CCCB232490A549DF80120204619
:10217000611CCCB22E490A549DF800202046611CF7
:10218000CCB22B490A54CDF800809DF8032020469C
:10219000611CCCB226490A549DF802202046611CDD
:1021A000CCB223490A549DF801202046611CCCB2D0
:1021B0001F490A549DF800202046611CCCB21C49DE
:1021C0000A54CDF800909DF803202046611CCCB243
:1021D00017490A549DF802202146601CC4B21448D5
:1021E00042549DF801202046611CCCB210490A548B
:1021F0009DF800202046611CCCB20D490A54201FD6
:10220000C870002506E00A48405D504400F0FF0A0F
:10221000681CC5B2A542F6DB2046611CCCB204495D
:1022200001F800A021460248FFF74AFBBDE8F88FFD
:10223000A215002070B5072004F0ECFA044604F063
:10224000400098B1602004F0E5FA0546212D08DA37
:102250002A460E49612004F0BBFA00200C49088090
:1022600003E0FF21E22004F00DFB00BF04F01000AA
:1022700030B104F0010018B1FF21E12004F002FBAD
:102280002146272004F0FEFA70BD0000E40C002077
:10229000B200002070B504460D464FF480703949F5
:1022A0000860052238492A2004F0CAFA0522374975
:1022B000302004F0C5FA0121212004F0E3FA0121C5
:1022C000222004F0DFFA1A21242004F0DBFA294648
:1022D000252004F0D7FA0F21262004F0D3FA012C90
:1022E00008D12021312004F0CDFA0F21202004F064
:1022F000C9FA41E0022C08D12021312004F0C2FAB1
:102300000E21202004F0BEFA36E0032C1AD1FF2162
:10231000E12004F0B7FAFF21E22004F0B3FA0F2124
:10232000202004F0AFFA502004F036FF732004F0B0
:1023300033FF01213C2004F0A5FA06213D2004F0E2
:10234000A1FA19E00E21202004F09CFAFF21E120DF
:1023500004F098FAFF21E22004F094FA502004F0EF
:102360001BFF732004F018FF01213C2004F08AFABF
:1023700006213D2004F086FA4FF480700149091FC0
:10238000086070BD14080140DDCA0008D8CA000802
:1023900070B504460D464FF48070064908602A4621
:1023A0002146A82004F04CFA4FF480700149091F1F
:1023B000086070BD1408014010B588B004460121C2
:1023C000880304F059FD0121084604F055FD012160
:1023D000042004F051FD4FF40070ADF80400032018
:1023E0008DF8060018208DF8070001A9254801F096
:1023F0005BFD4FF48060ADF8040003208DF806000B
:1024000004208DF8070001A91E4801F04DFD049439
:102410000020ADF81400ADF81600ADF81800ADF8C6
:102420001C000C20ADF81A000020ADF80800ADF833
:102430000A004FF40070ADF80C000020ADF80E005B
:1024400004A9114805F06AFD02A90F4805F016FD20
:10245000012240F225510C4805F03AFD01210A48BD
:1024600005F01DFD25208DF8000005208DF80100E8
:1024700001208DF802008DF80300684604F07CFA14
:1024800008B010BD00080140003801402DE9F04FB0
:1024900089B00746022603AC4FF000084FF0000950
:1024A0004FF0000A162F7CD2DFE807F07BFDCF9BB0
:1024B0007BFB99DE7B7B7B7B7B7B7B7B0B12192001
:1024C0002728DFF85083DFF85093DFF850A316E099
:1024D000DFF84C83DFF84C93DFF84CA30FE0DFF814
:1024E0004C83DFF84C93DFF84CA308E0DFF8488317
:1024F000DFF84893DFF848A301E000BF00BFB8F160
:10250000000F20D0D8F81000CE49FDF793FE834687
:10251000FEF7B4F800B2ADF81000D8F81400C949BD
:10252000FDF788FE8346FEF7A9F800B2ADF8120069
:10253000D8F81800C349FDF77DFE8346FEF79EF8E4
:1025400000B2ADF81400B9F1000F20D0D9F8100096
:10255000BC49FDF76FFE8346FEF790F800B2ADF878
:102560001600D9F81400B749FDF764FE8346FEF75C
:1025700085F800B2ADF81800D9F81800B149FDF798
:1025800059FE8346FEF77AF800B2ADF81A00BAF1A8
:10259000000F22D0DAF81000AA49FDF74BFE83465F
:1025A00000E000E1FEF76AF800B2ADF81C00DAF8CE
:1025B0001400A449FDF73EFE8346FEF75FF800B223
:1025C000ADF81E00DAF818009E49FDF733FE834689
:1025D000FEF754F800B2ADF820001226E4E0082619
:1025E000E2E09948808800B2ADF810009648C088B3
:1025F00000B2ADF812009448008800B2ADF81400A3
:102600009148408800B2ADF816008F48008900B2AA
:10261000ADF818008C48408900B2ADF81A008A481D
:10262000808900B2ADF81C008748C08900B2ADF8BF
:102630001E008548008A00B2ADF820008248408A1A
:1026400000B2ADF822001426AEE080480168049183
:1026500041680591806806907D48016807918088EF
:10266000ADF8200012269FE07A480078012805D1B5
:102670007949C868FEF702F8029001E00020029054
:10268000BDF80A00ADF81000BDF80800ADF8120062
:1026900071498868FEF70BF800B2ADF81400062601
:1026A00082E07FE0FFE76B480078012805D16A49A6
:1026B0004868FDF7E3FF029001E0002002906748C0
:1026C000006880F0004066490190FDF7B3FD834645
:1026D000FDF7D4FF00B2ADF81000604948686049CA
:1026E000FDF7A8FD8346FDF7C9FF00B2ADF8120063
:1026F0005A48806880F0004059490190FDF79AFDE2
:102700008346FDF7BBFF00B2ADF81400BDF80A0028
:10271000ADF81600BDF80800ADF8180051488078F3
:1027200030B1012808D0022814D003282ED11FE090
:1027300000204D4948602DE04B480078012804D125
:1027400040F201104849486003E04FF48070464968
:1027500048601FE044480078012804D140F201207D
:102760004149486003E04FF400703F49486011E080
:102770003D480078012804D140F201303A494860D0
:1027800003E04FF440703849486003E000203649C8
:10279000486000BF00BF3448406800B2ADF81A007E
:1027A0000C2601E000E000BF00BF4AF6AA20ADF809
:1027B0000C0046EA072000B2ADF80E005421301D8F
:1027C000215402251AE06057691C61564840605543
:1027D000681C205661574840691C60546057615618
:1027E00048406055615D681C205C0144301D205CE0
:1027F000084441B2301D2154A81CC5B2301D854289
:10280000E1DB701DC1B2204605F020FB09B0BDE838
:10281000F08F000038040020B804002038050020A4
:1028200038060020B8050020B80600203807002030
:10283000B80700203809002038080020B809002017
:10284000B808002000007A4400040020D0030020D3
:10285000560000205400002028040020E803002037
:102860000000C84260000020180400202DE9F84351
:102870009248007820B1012806D002287AD117E0CA
:1028800001208E49087016E18D48007818B10220A9
:102890008A4908700BE00220FFF7F8FD0120FFF7DE
:1028A000F5FD0320FFF7F2FD0720FFF7EFFD02E142
:1028B0008348007810B9012080490870804800786A
:1028C000C0F38010E8B11020FFF7E0FD012009F00F
:1028D000AFF91120FFF7DAFD012009F0A9F9122064
:1028E000FFF7D4FD012009F0A3F91320FFF7CEFD77
:1028F000012009F09DF97248007820F040007049ED
:1029000008706F48007800F03F0000287ED0002556
:10291000002600276A48007800F0010050B1694D98
:10292000694E6A4F6A4C6648007820F0010064499D
:10293000087031E062480078C0F3400050B1654D46
:10294000654E664F664C5E48007820F002005C4998
:10295000087021E05A480078C0F3800058B1614DFA
:10296000614E624F624C5648007820F00400544992
:10297000087011E09EE052480078C0F3C00050B1EA
:102980005C4D5D4E5D4F5E4C4D48007820F0080078
:102990004B49087000E08EE065B320788DF80100A7
:1029A00060788DF80000BDF80000FDF744FE804619
:1029B0005449FDF771FC2861A0788DF80100E0789A
:1029C0008DF80000BDF80000FDF735FE80464D494A
:1029D000FDF762FC686120798DF8010060798DF85F
:1029E0000000BDF80000FDF726FE80464549FDF7D2
:1029F00053FCA86176B3A0798DF80100E0798DF8D9
:102A00000000BDF80000FDF716FE00E051E0804632
:102A10003C49FDF741FC3061207A8DF80100607A75
:102A20008DF80000BDF80000FDF705FE8046354931
:102A3000FDF732FC7061A07A8DF80100E07A8DF824
:102A40000000BDF80000FDF7F6FD80462D49FDF7BA
:102A500023FCB06167B3207B8DF80100607B8DF8AB
:102A60000000BDF80000FDF7E6FD80462549FDF7B2
:102A700013FC3861A07B8DF80100E07B8DF800002D
:102A8000BDF80000FDF7D7FD80461E49FDF704FCA8
:102A90007861207C8DF80100607C8DF80000BDF825
:102AA0000000FDF7C8FD80461649FDF7F5FBB8614B
:102AB00000BF00E000BF00BFBDE8F8832402002093
:102AC0001A02002038040020B80400203805002035
:102AD000EC13002038060020B8050020B8060020BE
:102AE000FE13002038070020B80700203809002016
:102AF0001014002038080020B8090020B808002071
:102B00002214002000007A4400BFFEE770B506469C
:102B10000C4615462946204609F0B1F9A06A3060F6
:102B20002946304609F0ABF970BD2DE9FF4705464F
:102B3000002403A9284606F0A9FC044695F87C93D6
:102B400040F27F30465D34B902AB01AA694628469F
:102B500006F021FB04461CB9284608F0E3F80446B9
:102B60002CB94FF4FA71284605F0DCFD044644B94F
:102B7000D5F81480434632464946284604F049FBBE
:102B8000044644B928469DE80E0008F07EF8044645
:102B90000CB90298286124B903A9284608F09DF8C9
:102BA000044634B9AF7806223946284607F09FF923
:102BB000044614B940F27E304655204604B0BDE8C4
:102BC000F08700002DE9F35F8346364908680199D4
:102BD000FDF70AFE02D84FF0010A60E04FF0000A4C
:102BE000304908683049FDF7F5FD02D22E482D49DD
:102BF00008605846FDF78EFD804642460B462B483E
:102C00002B49FDF7A0FC04460D462A4908680968CF
:102C1000491C284B1960FDF713FD064622462B463A
:102C2000FDF7A4FD3BD2002022490860224A516AE8
:102C30001C4A1068FDF7CEFD03D21F48406A1949AF
:102C40000860184806684FF07E513046FDF79AFA42
:102C500014490860374600213846FDF7BBFD01D214
:102C600000201AE00F4805684FF07E512846FDF716
:102C700089FA0C4908602F4610493846FDF7B4FD23
:102C800001D20E4809E0074804684FF07E51204603
:102C9000FDF778FA0349086020460249086050466B
:102CA000BDE8FC9FB80700200000F0419A9999996F
:102CB0009999B93F44020020780E00200000484353
:102CC0003EB503460C46002017A52D68029517A5B2
:102CD0002D68019516A52D68009501251570012C0C
:102CE00002D0022C04D101E0002103E0012101E027
:102CF000022100BF00BF032B08D0042B02D0082BF9
:102D00000CD107E002AD6D5C15700AE001AD6D5CA1
:102D1000157006E01DF80150157002E06FF0070015
:102D200000BF00BF3EBD000002010300070608000F
:102D3000242526002DE9F04F06460F4613464FF492
:102D400096784FF01E09DFF884C0DFF884A041F6C2
:102D50009A1B0EB9002037E0072F01D1322033E053
:102D6000B3F93CE0C64502DA4FEA094103E0B3F9A2
:102D70003CE00EFB0BF181B1B3F838E00EFB0AF238
:102D800002EB5102B2FBF1F21204624502D8ACEB45
:102D9000020404E04FF4481401E04FF4C804C4F303
:102DA0000745642D02DD4FF0640E00E0AE46BEF133
:102DB000320F06DD642D02DD4FF0640E03E0AE46F7
:102DC00001E04FF0320E7046BDE8F08F33B375006E
:102DD000CDCC300001460A1F102A1BD2DFE802F0DA
:102DE0000E0C101216181A1A141A1A1A1A1A080A9D
:102DF0000A2011E006200FE004200DE002200BE085
:102E0000012009E0072007E0092005E0032003E096
:102E1000002001E0FF2000BF00BF704721B1026821
:102E200042F00102026004E002684FF6FE731A40AD
:102E30000260704701684FF6FE7211400160002188
:102E4000016041608160C1604B49884208D14A49B4
:102E50000839496841F00F01474A083A51608AE051
:102E600045491431884208D143490839496841F03D
:102E7000F001414A083A51607DE03F4928318842DB
:102E800008D13D490839496841F470613A4A083A25
:102E9000516070E038493C31884208D136490839E0
:102EA000496841F47041344A083A516063E032495C
:102EB0005031884208D130490839496841F47021BD
:102EC0002D4A083A516056E02B496431884208D1B6
:102ED00029490839496841F47001274A083A516084
:102EE00049E025497831884208D1234908394968A1
:102EF00041F07061204A083A51603CE01F49884225
:102F000006D1011F096841F00F01021F116032E074
:102F10001A491431884208D11849091F096841F03B
:102F2000F001164A121F116025E014492831884229
:102F300008D11249091F096841F470610F4A121F34
:102F4000116018E00D493C31884208D10B49091F36
:102F5000096841F47041094A121F11600BE00749EA
:102F60005031884207D10549091F096841F4702191
:102F7000024A121F11607047080002400804024014
:102F800010B50022026847F6F0739A430C6A8B680A
:102F900023430C6923434C6923438C692343CC6945
:102FA00023434C6A23438C6A23431A430260CB6851
:102FB00043600B6883604B68C36010BD70470000BE
:102FC0002DE9F05F834651480078012812D150491D
:102FD000486A5049FDF7FEFB05D34F48808840F210
:102FE0000641884206DA4FF0010A4FF47A704A49E6
:102FF000888088E04FF0000A5846FDF78BFB80463A
:1030000042460B4645484649FDF79DFA04460D46A3
:10301000444908680968491C424B1960FDF710FBD8
:10302000064622462B46FDF7A1FB6CD200203D4907
:1030300008603749486A4FF08041FDF7CBFB02D268
:103040004FF0804009E03249486A3249FDF7CCFB35
:1030500001D2304801E02E48406A06463249FDF769
:103060001BF90546314801682846FDF7E0F804469B
:103070000021FDF7AFFB01D2002042E02449486A5D
:103080004FF08041FDF7A6FB02D24FF0804009E0EF
:103090001F49486A1F49FDF7A7FB01D21D4801E0FF
:1030A0001B48406A06462049FDF7F6F805461F48CA
:1030B00001682846FDF7BBF804461D49FDF794FB5F
:1030C00001D21B481DE01249486A4FF08041FDF7CC
:1030D00081FB02D24FF0804009E00D49486A0D495A
:1030E000FDF782FB01D20B4801E00948406A054622
:1030F0000D49FDF7D1F804460C4801682046FDF75C
:1031000096F80A4908605046BDE8F09F1804002070
:10311000780E002000002041000400209A9999991F
:103120009999B93F400200200000A040B807002054
:10313000000048432DE9F04109F056FA09F08CFAF5
:103140001D49086009F01AFA09F08CF91B4908605A
:10315000084601681A48FDF767F804461949FDF763
:103160009BF819490860154801681548FDF75CF897
:1031700007461649FDF75EF806461549FDF75AF869
:103180000446114801681348FDF754F807460E48F5
:1031900001683846FDF74EF806460B480168304690
:1031A000FDF748F805462146FCF7ECFF0A490860A0
:1031B00008460068BDE8F0812401002028010020B5
:1031C0000044C54700007A441C010020EC51B83D82
:1031D0000000C84285EB513F200100202B490978AF
:1031E0002B4A11700021294A11702A4909782A4A6C
:1031F00011700021274A117028490978284A117056
:103200000021264A117027490978274A11700021A8
:10321000244A117025490978254A11700021234A52
:1032200011701F4909780A2903DD0021214A117014
:1032300005E00021204A117001211E4A11701A492F
:1032400009780A2903DD00211C4A117002E00121DE
:103250001A4A11701A490968491C194A116019491A
:10326000097809B9002111600021174A1160002076
:1032700009E0164951F82010134A12681144124A05
:103280001160411CC8B20628F3DB7047B000002073
:10329000AF000020D3020020D20200201301002042
:1032A000120100201701002016010020E801002073
:1032B000E901002014010020150100201801002060
:1032C0004800002018040020240000207C03002077
:1032D0002DE9F04101F00EFE2449C860244803F0B6
:1032E00045FE01F007FE23490968441A2046FDF710
:1032F000B8F905460022204BFDF725F90746FDF7F2
:103300004DFA1E49086001F0F5FD1A490860184899
:1033100003F036FC164800F07DFA154801F0FEFE79
:103320000A2002F03DF801F0E5FD15490968441A4C
:103330002046FDF796F9054600220F4BFDF703F9ED
:103340000746FDF72BFA0F49086001F0D3FD0C4941
:1033500008600C48006801F0F1FD01F0CBFD034965
:10336000C968401A0149C860BDE8F0817C030020AB
:103370000AD7233C3400002080842E4144000020E2
:10338000300000204000002010B501F0B3FD0649D8
:103390000861FFF76BFA01F0ADFD03490969401AB6
:1033A0000149086110BD00007C0300202DE9F041B7
:1033B00001F0A0FD1449086003F02CF801F09AFD1B
:1033C00012490968441A2046FDF74BF905460022C8
:1033D0000F4BFDF7B8F80746FDF7E0F90D49086017
:1033E00001F088FD094908600A48006800F072F998
:1033F00002F06AFE01F07EFD03490968401A0249A5
:103400000860BDE8F08100007C0300202800002057
:1034100080842E413800002010B501F06BFD0A4970
:103420004860FEF707FFFDF7FDFC084803F022FEA9
:10343000064802F0AFFD01F05DFD03494968401AFE
:103440000149486010BD00007C0300206F12833BDF
:1034500010B501F04FFD0949486103F0D1FA00F0C1
:10346000E5F807F021FD08F0D7FD01F043FD034921
:103470004969401A0149486110BD00007C030020E1
:103480002DE9F04101F036FD184988608968184A35
:103490001268881AFDF7E5F806460022154BFDF77D
:1034A00052F80446FDF77AF91349086001F022FD4D
:1034B0000F490860104811490268114800F0D0FD1A
:1034C0004FF080410C480068FCF7B4FE04462246E9
:1034D0000C490D4801F07AF901F00CFD03498968A7
:1034E000401A02498860BDE8F08100007C0300209A
:1034F0002C00002080842E413C000020E8030020A6
:10350000D0030020F4030020DC0300202DE9F84F55
:103510004FF4006000F076F8002856D02C48007870
:1035200098B900202B490860012029490870002122
:10353000294804F0A6FA284804F02BF92749086026
:103540000121254804F019F93BE00021224804F04C
:1035500014F900201E4908701F4804F01AF91F4989
:10356000086000211C4804F008F91C480068FDF7B9
:1035700067F806461A4A1B4BFCF7E5FF0446FDF7C1
:103580000DF9194908601948016817480068FCF7E7
:103590004BFE0090FDF7BEF88046154A154BFCF730
:1035A00060FF82468B4611480068FDF7B3F8064677
:1035B00052465B46FCF7AEFE0446FDF7EFF80B49BA
:1035C00008604FF4006000F017F8BDE8F88F0000C5
:1035D000D8010020DC010020002C0140D401002093
:1035E0008FC2F5285C8FE23FD0010020CC01002083
:1035F0009A9999999999C93F0149086070470000C3
:1036000014040140014600200022074B1B6803EA16
:103610000102054B14331B680B4013B10AB10120A2
:1036200000E0002070470000000401400020214914
:1036300008802148007820B90846008840F0010041
:1036400008801E48007828B91A48008840F0020017
:10365000184908801A48007828B91648008840F0B0
:103660000400144908801748007828B111480088E0
:1036700040F008000F4908801348007828B90D4829
:10368000008840F010000B4908801048007801289D
:1036900005D10848008840F02000064908800C4801
:1036A000007828B90348008840F0400001490880AC
:1036B000704700002C020020AC000020AE0000206B
:1036C000AD0000201101002014010020A000002006
:1036D0001801002070B5044642480078012806D041
:1036E0000B280BD01F2817D0FF286FD165E03E486C
:1036F000007810B10B203B4908706BE00C213B486F
:1037000008F0A4FB00203A49486208603949886003
:103710001F20344908705DE03749B1F90600FCF715
:1037200081FF0546354801682846FCF783FD34498A
:1037300048623149B1F90800FCF774FF05462F488B
:1037400001682846FCF776FD2E4948622A49B1F9FE
:103750000A00FCF767FF0546284801682846FCF781
:1037600069FD294948622348406828494862214840
:103770000068274948621F4880681D494862214601
:10378000234808F07CFB2248806A1D4908602146D6
:103790001B4808F074FB21461C4808F070FB1B48CE
:1037A000806A184908602146164808F068FB2246DE
:1037B0000F491548FFF7AAF90CE00C210B4808F057
:1037C00045FB01200749087004E0FFE7FF20054999
:1037D000087000BF00BF0448007810B9FF200149FD
:1037E000087070BDC0020020180400206402002090
:1037F000B8060020E8030020D0030020F0CA00082B
:1038000038040020B804002038050020B805002046
:103810003806002010B50446664890F821000128BB
:103820006FD1654800680A286BD963480068B0F515
:10383000C87F66D26148C06C6149486221466048D1
:1038400008F01DFB5E49886A5E49FCF7C3FF01D2A0
:103850005C4809E05A49886A5B49FCF7C5FF01D218
:10386000594801E05648806A584908605348C06C7E
:1038700048622146554808F002FB5548007A00F09E
:10388000010030B15248407A18B9012051490870FE
:103890000CE04F48407A012808D14F4948684F4909
:1038A000FCF7A2FF02D202204A4908704848007B78
:1038B000012801D1474908704948007845490978ED
:1038C00088422CD000203B4988603C4988600862CF
:1038D0008863886208640121424808F0B7FA012130
:1038E0004048001D08F0B2FA3A480078012809D192
:1038F0003D483E4908614FF07C5048613C48886132
:103900000DE046E033480078022808D14FF07F50A0
:10391000364908614FF07C504861354888612D4830
:1039200000782F4908702B480078012802D002281F
:103930002DD123E02148806C2E49486221462D4834
:1039400008F09DFA2B49886A1E49FCF743FF01D213
:103950001C4809E02749886A1B49FCF745FF01D24A
:10396000194801E02348806A204908601348806CA8
:10397000486221461D4808F082FA09E00F48006DB0
:103980001A4948622146194808F079FA00E000BF58
:103990000EE0002007498860C860144988620B491E
:1039A00088620749086013490860C8600449C86014
:1039B00010BD0000780E002098020020A80E002004
:1039C000B808002000007AC400007A44B80900203A
:1039D000180400205C0200209813002000008C4294
:1039E0005D02002084020020F6281C3F38090020D8
:1039F000CDCCCC3E380800202DE9F0470446002607
:103A00008548007820B1012814D002287DD123E018
:103A1000FE2C0BD101208049087080480178007885
:103A2000401C7E4A10707E48445402E000207A49CF
:103A30000870EEE0042C0BD102207749087077481B
:103A400001780078401C754A10707548445402E0B3
:103A5000002071490870DCE0704801780078401C53
:103A60006E4A10706E484454104600780B287DD181
:103A700000206949087011460870694880786849D3
:103A8000C978084466490979084465494979084470
:103A90006349897908446249C9790844C6B2AA2CA5
:103AA000E5D15F48007AB042E1D15E480078401C21
:103AB0005C4908705A49C978090209B2584A927893
:103AC00041EA0200FCF7AEFD5749086054494979C4
:103AD000090209B2524A127941EA0200FCF7A2FD3A
:103AE000514948604E48407A81F820004C49C979D4
:103AF000090209B24A4A927941EA0200FCF792FDB2
:103B000049494862486A494900E07CE0FCF762FEA6
:103B100006D24549486AFCF7CAFD4549086005E0F8
:103B200044494868FCF7C3FD4149086040480068C3
:103B3000FCF781FD81464049FCF77CFB80463F490C
:103B4000FCF7AAFB07463E49FCF774FB05463649DD
:103B500008682946FCF76EFB0746334881683846FB
:103B6000FCF710FB30498860486800E042E02946D5
:103B7000FCF760FB07462C48C1683846FCF702FB9F
:103B80002949C8602F4841682F48FCF753FB074676
:103B90002946FCF74FFB244908612A4801682A4856
:103BA000FCF748FB07462946FCF744FB1E494861E1
:103BB0000A4611689069FCF7E5FA1B4988610A46D4
:103BC0005168D069FCF7DEFA1749C861084690F8D9
:103BD000200019280FDA1D480078401C1B49087086
:103BE000084600783C280DDD3C20087000200E4976
:103BF00081F8210006E000201449087001200A49DC
:103C000081F8210005E0002003490870034908708D
:103C100000BF00BFBDE8F087C1010020C001002047
:103C2000040F002017010020780E00200000C84378
:103C300098020020280400200AD7233CBE9F3E4162
:103C40005C8F2240E8030020000020C1C201002058
:103C50002DE9FC5F4FF0960A4FF0824B7E480190B1
:103C60007E4800907E4890F8210001287DD17D4853
:103C700000680A2879D97B480068B0F5C87F74D2FB
:103C80007948408840F2A461884215DD7748007B7E
:103C900090B977480078012807D1764908687649B5
:103CA000FCF770FA7349086006E071480078022852
:103CB00002D10020714908606B48408840F21451DD
:103CC000884212DA6A480078012807D169490868F1
:103CD0006149FCF757FA6749086006E064480078D4
:103CE000022802D10020654908605F48008840F240
:103CF000A461884206DD624908685F49FCF742FA20
:103D00005F4908605848008840F21451884206DA3A
:103D10005B4908685049FCF735FA5949086054482E
:103D20000078012800D100BF5148007802280FD147
:103D30004D48408840F27261884208DA4A4840881B
:103D400040F24651884202DD4E484C49086000BFAF
:103D50004A49886AFCF7DEFC80464B4A4B4BFCF72D
:103D600080FB064600224A4B00E058E0FCF7E6FCE8
:103D700002D2002046491AE04049886AFCF7CAFC92
:103D80000646414A414BFCF76CFB80460022414B02
:103D9000FCF7ECFC02D200203E4908E03749886A73
:103DA000FCF7B8FC0646384A384BFCF75AFB044689
:103DB000FCF7F4FC384908603849886AFCF7AAFC2B
:103DC0008046314A314BFCF74CFB06460022304B13
:103DD000FCF7B4FC02D200202D491AE02F49886A72
:103DE000FCF798FC0646284A284BFCF73AFB80462D
:103DF0000022284BFCF7BAFC02D20020254908E03B
:103E00002649886AFCF786FC06461F4A1F4BFCF7CA
:103E100028FB0446FCF7C2FC2149086019E012495E
:103E2000498840F2DC52501AFCF7FCFB04461D495D
:103E3000FCF700FA184908600B49098840F2DC5287
:103E4000501AFCF7EFFB04461649FCF7F3F9144946
:103E50000860BDE8FC9F00009A99993E0000F0417F
:103E6000780E002098020020000400201804002092
:103E70005C020020380800209A9999BE3809002079
:103E8000B80800200000F0C19A9999999999B93F12
:103E900000002EC000002E40B8050020B809002008
:103EA000380600200AD7233D2DE9F04102460025BF
:103EB0000026002000230024002791F803C00CF006
:103EC0000F0591F803C00CF0100CBCF1000F03D0EB
:103ED00091F802C04CEA050591F800C0BCF1000F52
:103EE00031D0146800202BE04FF0010C0CFA00F3E5
:103EF000B1F800C00CEA03069E4220D183004FF0C7
:103F00000F0C0CFA03F7BC4305FA03FC4CEA04045B
:103F100091F803C0BCF1280F06D14FF0010C0CFA48
:103F200000FCC2F814C00AE091F803C0BCF1480FCD
:103F300005D14FF0010C0CFA00FCC2F810C0401C77
:103F40000828D1D31460B1F800C0BCF1FF0F34DDF4
:103F5000546800202EE000F1080C4FF0010808FA28
:103F60000CF3B1F800C00CEA03069E4221D1830095
:103F70004FF00F0C0CFA03F7BC4305FA03FC4CEAB4
:103F8000040491F803C0BCF1280F05D100F1080C1E
:103F900008FA0CF8C2F8148091F803C0BCF1480F7D
:103FA00007D100F1080C4FF0010808FA0CF8C2F82C
:103FB0001080401C0828CED35460BDE8F08100007A
:103FC000F0B50A46002300240021002500F0004639
:103FD000B6F1004F02D11D4EF16901E01B4E716830
:103FE000C0F3034583B200F44016B6F5401F08D174
:103FF00021F07061154E766826F07066134F7E6072
:1040000012E000F48016B6F5801F06D1032606FAEA
:1040100005F4A14341F0706106E0460D360103FA54
:1040200006F6B14341F0706122B1460D360103FA44
:1040300006F6314300F00046B6F1004F02D1034EC0
:10404000F16101E0014E7160F0BD0000000001402F
:10405000016170470148006870470000E4020020D9
:1040600007B59EB04FF07C512098FCF7E3F80C9018
:10407000FE4880680890FD48006807900899FCF7A2
:10408000D9F80A90F948C0680890F8484068079045
:104090000899FCF7CFF809900A99FCF7C5F84FF09A
:1040A00080410B90FCF7C6F81B90F048C068089060
:1040B000EE48806807900899FCF7BCF80A90EB4836
:1040C00040680890E948006807900899FCF7B2F842
:1040D00009900A99FCF756F84FF080410B90FCF7D5
:1040E000A9F81C90E14880680790E0488068069035
:1040F0000799FCF79FF80990DC4840680790DB4877
:10410000406806900799FCF795F808900999FCF724
:1041100039F84FF080410A90FCF78CF84FF07E514F
:104120000B90FCF784F81D90D148B0F9040006907C
:10413000FCF778FA0890CE48B0F904000690FCF736
:1041400071FA07900899FCF775F80A90C848B0F919
:1041500002000490FCF766FA0690C548B0F9020028
:104160000490FCF75FFA05900699FCF763F8089055
:10417000BF48B0F900000490FCF754FA0690BC4820
:10418000B0F900000490FCF74DFA05900699FCF791
:1041900051F807900899FBF7F5FF09900A99FBF78A
:1041A000F1FF0B9002F014FE0D901E98B0F9000084
:1041B0000A90FCF737FA0B900D99FCF73BF8189032
:1041C0001E98B0F902000A90FCF72CFA0B900D999A
:1041D000FCF730F819901E98B0F904000A90FCF72B
:1041E00021FA0B900D99FCF725F81A901C9809906C
:1041F0001A9808900999FCF71DF80B901D980990E2
:10420000199808900999FCF715F80A900B99FCF792
:104210000BF812901D980990189808900999FCF7CE
:1042200009F80B901B9809901A9808900999FCF7C7
:1042300001F80A900B99FBF7F7FF13901B98099070
:10424000199808900999FBF7F5FF0B901C980990B5
:10425000189808900999FBF7EDFF0A900B99FBF766
:10426000E3FF149012980A90824801680A98FBF7BD
:10427000E1FF0B908048006801460A900B98FBF71D
:1042800081FF7D49086013980A907A4801680A986E
:10429000FBF7D0FF0B907848406801460A900B98D6
:1042A000FBF770FF7449486014980A9071480168E0
:1042B0000A98FBF7BFFF0B906F48806801460A9091
:1042C0000B98FBF75FFF6C498860129801460890D5
:1042D0006A480068FBF7AEFF0A901E98B0F9060026
:1042E0000790FCF79FF90890654801680898FBF76C
:1042F000A1FF09900A99FBF745FF0B905E48006803
:1043000001460A900B98FBF73DFF15901398014664
:1043100008905A480068FBF78DFF0A901E98B0F984
:1043200008000790FCF77EF9089055480168089846
:10433000FBF780FF09900A99FBF724FF0B904E488A
:10434000406801460A900B98FBF71CFF16901498E2
:104350000146089049480068FBF76CFF0A901E98D8
:10436000B0F90A000790FCF75DF90890444801682D
:104370000898FBF75FFF09900A99FBF703FF0B9082
:104380003D48806801460A900B98FBF7FBFE1790AA
:10439000179808903548C06807900899FBF74AFFBE
:1043A0000A90169806903148806805900699FBF7A8
:1043B00041FF08902D48406880F000400690159815
:1043C000014605900698FBF735FF07900899FBF723
:1043D0002BFF09900A99FBF727FF0B900C99FBF72D
:1043E00029FF119017980890204880680790089935
:1043F000FBF720FF0A90169806901C48C0680590AD
:104400000699FBF717FF0890159806901748006863
:1044100005900699FBF70EFF07900899FBF704FF3C
:1044200009900A99FBF7AEFE0B900C99FBF702FF7F
:104430001090179808900D48406807900899FBF76E
:10444000F9FE0A90169806900848006805900699AB
:10445000FBF7F0FE0890159806900448C068059098
:104460000699FBF7E7FE079008990BE0F0020020A1
:10447000D0030020EC020020D4150020E802002028
:10448000F4CA0008FBF77EFE09900A99FBF7CCFE00
:104490000B900C99FBF7CEFE0F9017980890C6482A
:1044A000006807900899FBF7C5FE0A9016980690D9
:1044B000C148406805900699FBF7BCFE0890BE48CD
:1044C000806880F000400690159801460590069897
:1044D000FBF7B0FE07900899FBF754FE09900A9984
:1044E000FBF750FE0B900C99FBF7A4FE0E90B24820
:1044F00000680B901199FBF745FEAF49086008462C
:1045000040680B901099FBF73DFEAB4948600846A8
:1045100080680B900F99FBF735FEA7498860084625
:10452000C0680B900E99FBF72DFEA349C8600846A2
:10453000C06808900846C06807900899FBF77AFEA3
:104540000A909D48806806909B488068059006996F
:10455000FBF770FE089098484068049096484068C1
:1045600003900499FBF766FE069093480068049058
:104570009148006803900499FBF75CFE059006994A
:10458000FBF700FE07900899FBF7FCFD09900A99DC
:10459000FBF7F8FD0B9002F01BFC0D9086480068BD
:1045A0000B900D99FBF746FE83490860084640686A
:1045B0000B900D99FBF73EFE7F49486008468068E6
:1045C0000B900D99FBF736FE7B4988600846C06862
:1045D0000B900D99FBF72EFE7749C860084640689E
:1045E000014604904FF08040FBF724FE059072488E
:1045F000C068014604900598FBF71CFE07906E48C2
:104600000068014604904FF08040FBF713FE0590D0
:1046100069488068014604900598FBF70BFE0690F8
:104620000799FBF701FE0B90634800680146049070
:104630004FF08040FBF7FEFD05905F484068014663
:1046400004900598FBF7F6FD07905B4880680146EB
:1046500004904FF08040FBF7EDFD05905648C06890
:10466000014604900598FBF7E5FD06900799FBF7D6
:1046700089FD0A9050488068014604904FF08040C0
:10468000FBF7D8FD05904C488068014604900598DA
:10469000FBF7D0FD079048484068014603904FF073
:1046A0008040FBF7C7FD04904348406801460390F3
:1046B0000498FBF7BFFD4FF07E510590FBF7B7FD67
:1046C00006900799FBF7B0FD09901E98B0F90A0013
:1046D0000690FBF7A7FF0790384801680798FBF79B
:1046E000A9FD08904FF07E510898FCF77DF804D39F
:1046F00033490898FCF76EF80DD220990898FBF71B
:1047000099FD07901F988068014606900798FBF76F
:1047100039FD1F9988602B480068FBF7FBFFCDE946
:1047200004010B98FBF7F6FFCDE9000107F008F84C
:10473000CDE90201DDE90423FBF793FECDE9060193
:10474000FCF72CF81F994860DDE9091007F030F9F3
:1047500007901C4801680798FBF76CFD1F990860DB
:104760001E98B0F904000490FBF75CFF05900999CE
:10477000FBF760FD07901E98B0F902000290FBF76E
:1047800051FF03900A99FBF755FD05901E98B0F96B
:1047900000000290FBF746FF03900B99FBF74AFDE0
:1047A00004900599FBF7EEFC06900799FBF7EAFCED
:1047B0000549086021B000BDF0020020F0CA0008E1
:1047C000000080BFE8CA0008E402002007B59EB0E0
:1047D0004FF07C512098FBF72DFD0C90FE4880682F
:1047E0000890FD48006807900899FBF723FD0A90A0
:1047F000F948C0680890F848406807900899FBF7A6
:1048000019FD09900A99FBF70FFD4FF080410B90BD
:10481000FBF710FD1B90F048C0680890EE488068D8
:1048200007900899FBF706FD0A90EB48406808904E
:10483000E948006807900899FBF7FCFC09900A9981
:10484000FBF7A0FC4FF080410B90FBF7F3FC1C90B2
:10485000E14880680790E048806806900799FBF778
:10486000E9FC0990DC4840680790DB484068069006
:104870000799FBF7DFFC08900999FBF783FC4FF0E1
:1048800080410A90FBF7D6FC4FF07E510B90FBF76E
:10489000CEFC1D90D148B0F904000690FBF7C2FE93
:1048A0000890CE48B0F904000690FBF7BBFE0790D5
:1048B0000899FBF7BFFC0A90C848B0F902000490C1
:1048C000FBF7B0FE0690C548B0F902000490FBF774
:1048D000A9FE05900699FBF7ADFC0890BF48B0F91A
:1048E00000000490FBF79EFE0690BC48B0F9000063
:1048F0000490FBF797FE05900699FBF79BFC079049
:104900000899FBF73FFC09900A99FBF73BFC0B90D9
:1049100002F05EFA0D901E98B0F900000A90FBF7C5
:1049200081FE0B900D99FBF785FC18901E98B0F94D
:1049300002000A90FBF776FE0B900D99FBF77AFCCC
:1049400019901E98B0F904000A90FBF76BFE0B90CB
:104950000D99FBF76FFC1A901C9809901A98089013
:104960000999FBF767FC0B901D980990199808901E
:104970000999FBF75FFC0A900B99FBF755FC129025
:104980001D980990189808900999FBF753FC0B9013
:104990001B9809901A9808900999FBF74BFC0A900C
:1049A0000B99FBF741FC13901B98099019980890FC
:1049B0000999FBF73FFC0B901C98099018980890F8
:1049C0000999FBF737FC0A900B99FBF72DFC149023
:1049D00012980A90824801680A98FBF72BFC0B900A
:1049E0008048006801460A900B98FBF7CBFB7D4995
:1049F000086013980A907A4801680A98FBF71AFC35
:104A00000B907848406801460A900B98FBF7BAFB78
:104A10007449486014980A90714801680A98FBF735
:104A200009FC0B906F48806801460A900B98FBF7D1
:104A3000A9FB6C4988601298014608906A48006892
:104A4000FBF7F8FB0A901E98B0F906000790FBF7F9
:104A5000E9FD0890654801680898FBF7EBFB0990B1
:104A60000A99FBF78FFB0B905E48006801460A909D
:104A70000B98FBF787FB15901398014608905A484E
:104A80000068FBF7D7FB0A901E98B0F90800079062
:104A9000FBF7C8FD0890554801680898FBF7CAFB6A
:104AA00009900A99FBF76EFB0B904E48406801464F
:104AB0000A900B98FBF766FB169014980146089035
:104AC00049480068FBF7B6FB0A901E98B0F90A0047
:104AD0000790FBF7A7FD0890444801680898FBF78A
:104AE000A9FB09900A99FBF74DFB0B903D488068A4
:104AF00001460A900B98FBF745FB17901798089012
:104B00003548C06807900899FBF794FB0A901698FF
:104B100006903148806805900699FBF78BFB08905A
:104B20002D48406880F00040069015980146059099
:104B30000698FBF77FFB07900899FBF775FB099038
:104B40000A99FBF771FB0B900C99FBF773FB119023
:104B5000179808902048806807900899FBF76AFB2F
:104B60000A90169806901C48C06805900699FBF7B5
:104B700061FB089015980690174800680590069903
:104B8000FBF758FB07900899FBF74EFB09900A9931
:104B9000FBF7F8FA0B900C99FBF74CFB1090179869
:104BA00008900D48406807900899FBF743FB0A906E
:104BB000169806900848006805900699FBF73AFB9E
:104BC0000890159806900448C06805900699FBF770
:104BD00031FB079008990BE008030020D003002068
:104BE00004030020E015002000030020F4CA0008A0
:104BF000FBF7C8FA09900A99FBF716FB0B900C9982
:104C0000FBF718FB0F9017980890B14800680790C1
:104C10000899FBF70FFB0A9016980690AC4840687D
:104C200005900699FBF706FB0890A948806880F07C
:104C3000004006901598014605900698FBF7FAFA91
:104C400007900899FBF79EFA09900A99FBF79AFAE0
:104C50000B900C99FBF7EEFA0E909D4800680B90B4
:104C60001199FBF78FFA9A490860084640680B9043
:104C70001099FBF787FA96494860084680680B90C0
:104C80000F99FBF77FFA924988600846C0680B903D
:104C90000E99FBF777FA8E49C8600846C0680890FD
:104CA0000846C06807900899FBF7C4FA0A9088483C
:104CB000806806908648806805900699FBF7BAFAE6
:104CC00008908348406804908148406803900499A4
:104CD000FBF7B0FA06907E48006804907C480068B4
:104CE00003900499FBF7A6FA05900699FBF74AFA98
:104CF00007900899FBF746FA09900A99FBF742FAE0
:104D00000B9002F065F80D90714800680B900D99BA
:104D1000FBF790FA6E490860084640680B900D99C1
:104D2000FBF788FA6A494860084680680B900D993D
:104D3000FBF780FA664988600846C0680B900D99B9
:104D4000FBF778FA6249C86008464068014604905B
:104D50004FF08040FBF76EFA05905D48C068014651
:104D600004900598FBF766FA0790594800680146D9
:104D700004904FF08040FBF75DFA0590544880683E
:104D8000014604900598FBF755FA06900799FBF742
:104D90004BFA0B904E480068014604904FF080405B
:104DA000FBF748FA05904A48406801460490059888
:104DB000FBF740FA079046488068014604904FF0A0
:104DC0008040FBF737FA05904148C06801460490DF
:104DD0000598FBF72FFA06900799FBF7D3F90A908D
:104DE0003B488068014604904FF08040FBF722FA70
:104DF000059037488068014604900598FBF71AFA39
:104E0000079033484068014603904FF08040FBF71D
:104E100011FA04902E484068014603900498FBF76D
:104E200009FA4FF07E510590FBF701FA06900799B9
:104E3000FBF7FAF909901E98B0F90A000690FBF703
:104E4000F1FB0790234801680798FBF7F3F90890F6
:104E50004FF07E510898FBF7C7FC04D31E49089811
:104E6000FBF7B8FC0DD220990898FBF7E3F90790FF
:104E70001F988068014606900798FBF783F91F99F1
:104E8000886016480068FBF745FCCDE904010B98E3
:104E9000FBF740FCCDE9000106F052FCCDE9020130
:104EA000DDE90423FBF7DDFACDE90601FBF776FC2B
:104EB0001F994860DDE9091006F07AFD0790074860
:104EC00001680798FBF7B6F91F99086021B000BD8B
:104ED00008030020F0CA0008000080BFE8CA0008EC
:104EE000024800680249086070470000E8F7FF1FA9
:104EF0005C00002000BF0E4801684FF0E02082698E
:104F00000B4800688142F6D10A48006800EB400374
:104F1000C3EBC010C2EBC000064B1B68B0FBF3F044
:104F200001EB4103C3EBC11300EBC300704700006A
:104F3000500000201400002000BFFEE72DE9F05FC4
:104F400005466449486A6449FBF744FC06D2614956
:104F5000486AFBF7ACFB6149086005E060494868B6
:104F6000FBF7A5FB5D490860FFF774F80746FBF700
:104F700085FB04B25B48007808B95B4804805A4856
:104F80000088201A06B255480068FBF754FB834698
:104F9000564801685846FBF747F982465449FBF7E3
:104FA00049F981462946FBF777F907463046FBF772
:104FB00039FB83462946FBF73DF982464D48416A55
:104FC0005046FBF7DFF881464B49FBF733F9804643
:104FD0003946FBF7D7F84749486240480068FBF775
:104FE0002AFB46494862414908603E48007810B9AA
:104FF000FF204349087042480078012806D0022863
:1050000016D01F282AD0FF285CD14EE03548007A00
:1050100000F0010058B13348007840B1052039490B
:1050200088700220364908700020374908604DE03A
:1050300036498988A1F57A70FBF7F4FA324908609D
:105040000020334908703348B0F90000FBF7EAFA52
:105050002A4908601F202A49087037E02946274856
:1050600006F00DFF2548806A22490860294621483C
:1050700006F005FF2548808840F20641884208DA9C
:105080000121254806F0E2FE01212348001D06F01B
:10509000DDFE1448007A00F0010028B9002019490B
:1050A0008870FF201649087010E001211A4806F0A8
:1050B000CDFE01211848001D06F0C8FE0120104950
:1050C000087003E001200E49087000BF00BFBDE872
:1050D000F09F0000780E00200000C84398020020D6
:1050E0002804002018040020B2020020BC02002086
:1050F0000AD7A33C3807002048E17A3FB8070020D0
:10510000B00200209C000020B40200200004002017
:10511000B8020020940200207C0200202DE9F84F04
:1051200004469048007808B9BDE8F88F8E480078AA
:1051300088B100208D4908608D490860FDF7FAFFAD
:105140000546FBF79BFA8B49086000F0B3F9002095
:10515000854908702AE087480068FBF763FA06462D
:10516000FDF7E8FF07463146FBF75EF80546FBF71B
:1051700085FA7E49086000212046FBF72BFB01D110
:1051800000200AE079490968794A1268881AFBF711
:1051900049FA06462146FBF77FF80546FBF76EFA0B
:1051A0007549086071480068714908607248006874
:1051B000FBF738FA054671482B46714A0A210090E0
:1051C000704801F0D5F870492046FBF733F80646E1
:1051D0006E480068FBF726FA0746684801683846BB
:1051E000FBF725F805463146FBF7F4FA04D2664989
:1051F0002046FBF71FF822E065492046FBF71AF826
:10520000064662480068FBF70DFA07465B480168EE
:105210003846FBF70CF805463146FBF7E5FA04D2B1
:105220005B492046FBF706F809E058480068FBF7A1
:10523000F9F90546514801682846FAF7F8FF55493B
:1052400008605548016853480068FAF7EDFF814649
:1052500052492046FAF7EEFF824651464FF07E5003
:10526000FBF71AF880464FF07E51FAF78BFF07469E
:1052700039464FF07E50FBF70FF806464946FAF7DD
:10528000D9FF0546444801682846FAF77BFF4249A2
:1052900008603F492046FAF7CDFF834600213E488B
:1052A0000068FBF7A1FA02D23B48006803E03A48E5
:1052B000006880F0004081465946FAF7EDFF074646
:1052C0000021FBF787FA01D2002034E03049204664
:1052D000FAF7B0FF834600212F480068FBF784FAF5
:1052E00002D22D48006803E02B48006880F000409F
:1052F00081465946FAF7D0FF07464FF07E51FBF73B
:1053000073FA02D24FF07E5015E021492046FAF799
:1053100091FF8146002120480068FBF765FA02D220
:105320001D48006803E01C48006880F00040074604
:105330004946FAF7B1FF8046164801684046FAF739
:1053400079FF064611480068FBF76CF98246314642
:10535000FAF718FF0546FBF791F90C49086000BF02
:10536000E2E6000054000020500100202C01002043
:1053700030010020340100203801002040010020CD
:1053800044010020940D00200000FAC43C010020DC
:105390000000FA44480100204C010020C3F54840B9
:1053A00070B504463248007800B970BD31480078C5
:1053B00000284AD03048006830490860304800680A
:1053C000304908603048314988603149886831493E
:1053D000FAF762FF2D4908602A480068FBF722F9B6
:1053E0002A4948602C48C8602046FBF724F9064645
:1053F0002A49FAF71FFF0546244906F031FC2248E6
:10540000274988602148406908601C480068FBF70C
:1054100009F9234948602348C8602046FBF70BF987
:1054200006461E49FAF706FF05461D4906F018FC18
:1054300011480068FBF7F6F81B49C8601848406936
:1054400048601248406988600FE018480088401C96
:105450001649088008460088C82803DD0120054950
:10546000087002E001201249087000BF9DE70000AB
:10547000540000206C0100202C0100205401002069
:105480003C01002058010020CDCC4C3FD40D002021
:10549000E803002000002041000048436F12833AD7
:1054A000BC0D00200000C84228040020B8010020E4
:1054B0005001002000200349486108610249486109
:1054C00008617047D40D0020BC0D002008B54020B5
:1054D000304908600120009004E09DF80000401E63
:1054E000C0B200909DF800000028F6D18020294924
:1054F00008600120009004E09DF80000401EC0B24A
:1055000000909DF800000028F6D140202149091F95
:1055100008600120009004E09DF80000401EC0B229
:1055200000909DF800000028F6D10120009004E0D2
:105530009DF80000401EC0B200909DF800000028B9
:10554000F6D10120009004E09DF80000401EC0B29A
:1055500000909DF800000028F6D10120009004E0A2
:105560009DF80000401EC0B200909DF80000002889
:10557000F6D14020074908600120009004E09DF822
:105580000000401EC0B200909DF800000028F6D137
:1055900008BD0000140C014008B5402030490860E7
:1055A0000120009004E09DF80000401EC0B2009071
:1055B0009DF800000028F6D180202949091F0860C5
:1055C0000120009004E09DF80000401EC0B2009051
:1055D0009DF800000028F6D140202149091F0860ED
:1055E0000120009004E09DF80000401EC0B2009031
:1055F0009DF800000028F6D10120009004E09DF8FD
:105600000000401EC0B200909DF800000028F6D1B6
:105610000120009004E09DF80000401EC0B2009000
:105620009DF800000028F6D10120009004E09DF8CC
:105630000000401EC0B200909DF800000028F6D186
:105640004020074908600120009004E09DF8000018
:10565000401EC0B200909DF800000028F6D108BDA1
:10566000140C014008B50821002080222C4B1A6040
:105670004CE04206100E4022294B1B1D1A600122ED
:10568000009204E09DF80020521ED2B200929DF8D4
:105690000020002AF6D10122009204E09DF80020AB
:1056A000521ED2B200929DF80020002AF6D140226C
:1056B0001B4B1A600122009204E09DF80020521E4C
:1056C000D2B200929DF80020002AF6D10122009269
:1056D00004E09DF80020521ED2B200929DF80020F6
:1056E000002AF6D10122009204E09DF80020521E0B
:1056F000D2B200929DF80020002AF6D1084A083A5A
:10570000126802F080020AB140F001000A1EA1F105
:105710000103D9B2ADD14022014B1B1D1A6008BD57
:10572000100C014008B5082150E040222C4B1A60B3
:105730000122009204E09DF80020521ED2B2009295
:105740009DF80020002AF6D100F0800222B18022CC
:10575000234B1B1F1A6002E08022214B1A60420675
:10576000100E0122009204E09DF80020521ED2B2D9
:1057700000929DF80020002AF6D14022184B1B1FF2
:105780001A600122009204E09DF80020521ED2B25D
:1057900000929DF80020002AF6D10122009204E038
:1057A0009DF80020521ED2B200929DF80020002ADF
:1057B000F6D10122009204E09DF80020521ED2B2E0
:1057C00000929DF80020002AF6D100BF0A1EA1F128
:1057D0000103D9B2A9D14022014B1A6008BD0000D3
:1057E000140C014038B504460825002280201E49CB
:1057F000086028E05006020E40201B49091D086081
:105800000120009004E09DF80000401EC0B200900E
:105810009DF800000028F6D14020134908600120BF
:10582000009004E09DF80000401EC0B200909DF87A
:1058300000000028F6D10C480838006800F080000D
:1058400008B142F00102281EA5F10101CDB2D1D16B
:1058500040200549091D086014B1FFF737FE01E03B
:10586000FFF79AFE104638BD100C014008B58020A5
:1058700022490860402008600120009004E09DF863
:105880000000401EC0B200909DF800000028F6D134
:105890001A480838006808B9012000E0002000F02C
:1058A000800008B1012008BD80201449091D08604E
:1058B0000120009004E09DF80000401EC0B200905E
:1058C0009DF800000028F6D10C480838006800F068
:1058D000800008B10120E6E740200849091D086062
:1058E0000120009004E09DF80000401EC0B200902E
:1058F0009DF800000028F6D100BFD4E7100C01404D
:1059000008B54020244908600120009004E09DF87B
:105910000000401EC0B200909DF800000028F6D1A3
:1059200080201D4908600120009004E09DF80000DF
:10593000401EC0B200909DF800000028F6D1012062
:10594000009004E09DF80000401EC0B200909DF859
:1059500000000028F6D140200F49091F08600120EF
:10596000009004E09DF80000401EC0B200909DF839
:1059700000000028F6D180200749091F0860012097
:10598000009004E09DF80000401EC0B200909DF819
:1059900000000028F6D108BD140C014008B5002114
:1059A00040202B4A10600120009004E09DF8000088
:1059B000401EC0B200909DF800000028F6D1802063
:1059C000234A121F10600120009004E09DF800009F
:1059D000401EC0B200909DF800000028F6D1402083
:1059E0001B4A121F10600120009004E09DF8000087
:1059F000401EC0B200909DF800000028F6D10120A2
:105A0000009004E09DF80000401EC0B200909DF898
:105A100000000028F6D10120009004E09DF800006D
:105A2000401EC0B200909DF800000028F6D1084842
:105A30000C38006800F0800020B14020044A10605B
:105A4000012008BD4020024A10600020F9E7000054
:105A5000140C014008B50121082001F00DFAC02006
:105A6000ADF8000003208DF8020014208DF803002B
:105A700069460248FEF718FA08BD0000000C014014
:105A800070B504460D461646FFF7F0FE012800D11A
:105A900070BDE0B2FFF746FEFFF780FF012803D19B
:105AA000FFF72EFF0120F3E7E8B2FFF73BFEFFF719
:105AB00075FFFFF7DBFE611CC8B2FFF733FEFFF78F
:105AC0006DFFFFF7CFFD40B23070FFF719FF0020E8
:105AD000DEE770B504460D460026FFF7C7FE012835
